:020000040800F2
:1000000000070020650100088B0100088D01000831
:1000100000000000000000000000000000000000E0
:100020000000000000000000000000008F01000838
:10003000000000000000000091010008930100088A
:100040009501000895010008950100089501000838
:100050009501000895010008950100089501000828
:100060009501000895010008950100089501000818
:100070009501000895010008950100089501000808
:100080009501000800000000000000009501000834
:100090000000000095010008E10600089501000835
:1000A0000000000095010008950100089501000876
:1000B0009501000800000000950100089501000866
:1000C00000F002F800F03EF80CA030C80838241800
:1000D0002D18A246671EAB4654465D46AC4201D180
:1000E00000F030F87E460F3E0FCCB6460126334274
:1000F00000D0FB1AA246AB4633431847FC18000059
:100100001C190000103A02D378C878C1FAD85207F7
:1001100001D330C830C101D504680C6070470000BD
:100120000023002400250026103A01D378C1FBD813
:10013000520700D330C100D50B6070471FB51FBDFB
:1001400010B510BD00F04BF81146FFF7F7FF00F0B7
:10015000E7FB00F063F803B4FFF7F2FF03BC00F025
:1001600069F800000F4880F308880F480168090EFD
:100170000E4A914205D10E480E4901600E480F49C2
:1001800001600F4880470F480047FEE7FEE7FEE7A3
:10019000FEE7FEE7FEE700000B480C490C4A0D4B5A
:1001A0007047000000070020040000001F0000004E
:1001B0001810024001000000000001400000000093
:1001C0006D060008C10000080001002000070020A3
:1001D00000030020000300207047704770477546F9
:1001E00000F024F8AE46050069465346C008C0003A
:1001F000854618B020B5FFF7CFFF60BC002749083F
:10020000B6460026C0C5C0C5C0C5C0C5C0C5C0C5AE
:10021000C0C5C0C5403D49008D46704710B5044675
:10022000C046C0462046FFF796FF10BD0048704705
:100230009C00002001491820ABBEFEE7260002000A
:1002400070470000002004E00021034A1154411CC3
:10025000C8B20F28F8DD70478900002030B50124AE
:100260001BE00920C006806A102108430921C90645
:100270008862002505E00021204600F0E1F9681CB5
:10028000C5B20F2DF7DB0920C00680691021084395
:100290000921C9068861601CC4B2082CE1DD30BDAB
:1002A00030B504460F2C00DD30BD0920C006806A41
:1002B000102108430921C9068862002505E021466E
:1002C0000A2000F0BDF9681CC5B20F2DF7DB09202C
:1002D000C0068069102108430921C906886100BF52
:1002E000E2E730B504460920C006806A10210843C1
:1002F0000921C9068862002505E02146092000F091
:100300009FF9681CC5B20F2DF7DB0920C006806974
:10031000102108430921C906886130BD30B5044663
:10032000072C00DD30BD0920C006806A102108437B
:100330000921C9068862002505E021460B2000F04E
:100340007FF9681CC5B20F2DF7DB0920C006806954
:10035000102108430921C906886100BFE2E730B5D2
:100360000446012C00DD01240920C006806A10210A
:1003700008430921C9068862002505E021460C20B2
:1003800000F05EF9681CC5B20F2DF7DB0920C0062E
:100390008069102108430921C906886130BD30B544
:1003A0000446012C00DD01240920C006806A1021CA
:1003B00008430921C9068862002505E021460F206F
:1003C00000F03EF9681CC5B20F2DF7DB0920C0060E
:1003D0008069102108430921C906886130BD0000E9
:1003E00010B5012900DA10BD4A1ED1B217E0002273
:1003F00012E00378203B9C001B199B180A4CE35C1D
:100400000A4C63544B1CD9B2042A03D10023635411
:100410004B1CD9B2531CDAB2052AEADB401C027825
:10042000002AE4D100BFDEE7980900081000002090
:1004300010B5012900DA10BD4A1ED1B20FE000222A
:100440000AE00378DB00084C1B199B5C074C6354E3
:100450004B1CD9B2531CDAB2082AF2DB401C0278DA
:10046000002AECD100BFE6E7F80D000810000020DC
:1004700030B502460848435C08460AE0904204DD75
:10048000441E054D2C5D2C5401E0034C2354441EA6
:10049000E0B29042F2DA30BD1000002030B50246E2
:1004A0000848835C10460AE0884204DA054D441C83
:1004B0002C5D2C5401E0034C2354441CE0B28842D0
:1004C000F2DD30BD1000002000B50920C0068069B3
:1004D000102108430921C90688610846806A102155
:1004E00008430921C90688620020FFF738FF012070
:1004F00000F07CF9FFF7B2FE0120FFF730FF01208A
:1005000000F074F90120FFF74AFF012000F06EF9B6
:100510000720FFF703FF012000F068F90020FFF734
:10052000E0FE012000F062F90420FFF7B9FE01208F
:1005300000F05CF9FF20F53000F058F90020FFF7DB
:100540002EFF00BD70B50026002474E00920C0060F
:10055000806A102108430921C906886200255EE0EF
:10056000E8003649085C0121A1400840002801D07C
:1005700080200643E800401C3049085C0121A1406E
:100580000840002801D040200643E800801C2B4989
:10059000085C0121A1400840002801D0202006432A
:1005A000E800C01C2549085C0121A1400840002842
:1005B00001D010200643E800001D2049085C0121FD
:1005C000A1400840002801D008200643E800401D53
:1005D0001A49085C0121A1400840002801D00420EC
:1005E0000643E800801D1549085C0121A140084030
:1005F000002801D002200643E800C01D0F49085C16
:100600000121A1400840002801D001200643611CBF
:10061000C8B2314600F014F80026681CC5B20F2D90
:100620009EDB0920C0068069102108430921C90604
:100630008861601CC4B2082C88DB70BD10000020EB
:1006400000BF094A926802231A40002AF9D00A0220
:100650000243054BDA6000BF034A926880231A40C8
:10066000002AF9D1704700000030014019480068A5
:1006700001210843174908600846406816490840A8
:100680001449486008460068144908401149086048
:10069000084600680121890488430E49086008461D
:1006A00040683F21090488430A4948600846C06AF7
:1006B00000090001C8620846006BFF21D43188435D
:1006C000044908630846406B400840004863002026
:1006D00088607047001002400CB8FF08FFFFF6FE6C
:1006E00000B507480069C007C00F002807D000F018
:1006F00009F803480069400840000149086100BD4D
:100700000048014016480088002804D0144800889A
:10071000401E1349088013480088002809D1FF2093
:10072000F5301049088010484069012148400E49C1
:1007300048610E480088002806D1FF20F5300B499B
:10074000088001200A49087006480088401E0549B3
:10075000088006480088401E044908807047000051
:10076000080000200A000020000400480C000020BF
:100770000100002010B5002819DB1A4A03231B02D0
:10078000D21883089B00D2588307DC0EFF23A340B6
:100790009A438B071B0E8407E40EA3401A43114BA8
:1007A000032424021B198408A4001A5118E00E4ADD
:1007B00003071B0F083B9B089B00D2588307DC0EE6
:1007C000FF23A3409A438B071B0E8407E40EA3402C
:1007D0001A43054B0407240F083CA408A4001A512F
:1007E00010BD000000E100E01CED00E003490880BE
:1007F00000BF024909880029FBD17047080000208A
:1008000010B5414880690121890408433E49886147
:100810003E483F4988620120C8620846006891212D
:1008200008433B4908600846C0680121084338492D
:10083000C8601620002809DB00BF00BFC206D20E28
:1008400001219140334A116000BF00BF00BF052164
:100850001620FFF78FFF2C484069012189040843C7
:10086000294948612C480068012108432A49086049
:1008700025484069C9010843234948610920C00649
:100880000068402108430921C90608601E484069E4
:100890000121490408431C4948610920C0068068B9
:1008A000FF21090208430921C9068860084600683B
:1008B000A92109020843C90408600846006A0862C1
:1008C00008460068FF21013108430921C906086074
:1008D0000D4880690121090308430B4988610F48CD
:1008E0000068C521890008430C4908600846406833
:1008F00089140843094948600846006840210843B4
:100900000649086010BD0000001002403F1F0000B3
:100910000048014000E100E00004004800300140D0
:10092000FFF76EFF6420FFF761FFFFF7CDFDFFF7D4
:1009300089FC012110A0FFF753FD372111A0FFF71B
:1009400077FD18E012480078002807D01148008889
:10095000401C1049088000200D4908707721322082
:10096000FFF786FD30210020FFF798FD1420FFF7E8
:100970003DFFFFF7E7FDE5E7466F6E745F387835BA
:1009800000000000466F6E745F3878380000000089
:100990000100002004000020000000000000002FE3
:1009A00000000007000700147F147F14242A7F2A08
:1009B00012C4C810264636495522500005030000CF
:1009C000001C2241000041221C0014083E081408AB
:1009D000083E080800005030001010101010006091
:1009E00060000020100804023E5149453E00427F4D
:1009F000400042615149462141454B311814127F54
:100A00001027454545393C4A4949300171090503DC
:100A10003649494936064949291E00363600000044
:100A20005636000008142241001414141414004116
:100A30002214080201510906324959513E7E111112
:100A4000117E7F494949363E414141227F41412241
:100A50001C7F494949417F090909013E4149497AB9
:100A60007F0808087F00417F41002040413F017F0F
:100A7000081422417F404040407F020C027F7F04E7
:100A800008107F3E4141413E7F090909063E415120
:100A9000215E7F09192946464949493101017F01F3
:100AA000013F4040403F1F2040201F3F4038403F13
:100AB000631408146307087008076151494543002F
:100AC0007F414100552A552A550041417F000402CB
:100AD0000102044040404040000102040020545400
:100AE00054787F4844443838444444203844444887
:100AF0007F3854545418087E0901020C5252523E59
:100B00007F0804047800447D40002040443D007F7D
:100B10001028440000417F40007C041804787C08C1
:100B200004047838444444387C1414140808141419
:100B3000187C7C080404084854545420043F444062
:100B4000203C4040207C1C2040201C3C4030403C4D
:100B500044281028440C5050503C4464544C4400E9
:100B60000836410000007F00000041360800040202
:100B70000408040000000000000000000000000065
:100B80000000000000000000000000000000000065
:100B90000000000000000000000000000000000055
:100BA0000000000000000000000000000000000045
:100BB0000000000000000000000000000000000035
:100BC0000000000000000000000000000000000025
:100BD0000000000000000000000000000000000015
:100BE0000000000000000000000000000000000005
:100BF00000000000000000000000000000000000F5
:100C000000000000000000000000000000000000E4
:100C100000000000000000000000000000000000D4
:100C200000000000000000000000000000000000C4
:100C3000000000000000000036000000000000007E
:100C4000000000000000000000003E494949220069
:100C50000000000000000000000000000000000094
:100C600000000044457C45440000000000000000F6
:100C7000000000417F410000447D40000000000072
:100C80000000000000000000000000000000000064
:100C9000000000000000000000003854442800005C
:100CA0000000000000000000000000000000000044
:100CB0000000004A487A40407E1111117E7F494968
:100CC00049317F494949367F01010103603E2121B5
:100CD0007F7F4949494163147F146322494949365A
:100CE0007F1008047F7F1009047F7F081422417C55
:100CF0000201017F7F020C027F7F0808087F3E41CE
:100D000041413E7F0101017F7F090909063E4141C2
:100D1000412201017F0101074848483F1C227F22F0
:100D20001C63140814633F20203F60070808087FF5
:100D30007F407F407F3F203F207F017F4848307FBA
:100D40004848307F7F48484830224949493E7F081B
:100D50003E413E462919097F205454547878545412
:100D600054207C545454287C0404040060382438F3
:100D70006038545454186C107C106C284454542817
:100D80003C4040207C3C4042207C7C101028446049
:100D90001008047C7C0810087C7C1010107C3844FF
:100DA0004444387C0404047C7C14141408384444FF
:100DB000442004047C04040C5050503C18247C242F
:100DC0001844281028443C20203C600C1010107C53
:100DD0007C407C407C3C203C207C047C4848307C2F
:100DE0004830007C7C4848483028445454387C10B3
:100DF000384438582424247C0000000000000000FF
:100E00007E8195B1B195817E7EFFEBCFCFEBFF7EEA
:100E10000E1F3F7E3F1F0E00081C3E7F3E1C080039
:100E200018BAFFFFFFBA180010B8FCFFFCB810009A
:100E30000000183C3C180000FFFFE7C3C3E7FFFFBA
:100E4000003C664242663C00FFC399BDBD99C3FFAA
:100E500070F88888FD7F070F004E5FF1F15F4E004C
:100E6000C0E0FF7F05050707C0FF7F0505657F3FE1
:100E7000995A3CE7E73C5A997F3E3E1C1C08080003
:100E800008081C1C3E3E7F00002466FFFF6624000D
:100E9000005F5F00005F5F00060F097F7F017F7FBB
:100EA00040DABFA5FD5903020070707070707000C9
:100EB0008094B6FFFFB694800004067F7F0604008E
:100EC0000010307F7F3010000808082A3E1C080000
:100ED000081C3E2A080808003C3C20202020200056
:100EE000081C3E08083E1C0830383C3E3E3C38306A
:100EF000060E1E3E3E1E0E06000000000000000012
:100F000000065F5F060000000007070007070000FB
:100F1000147F7F147F7F1400242E6B6B3A12000025
:100F2000466630180C666200307A4F5D377A4800AA
:100F30000407030000000000001C3E6341000000A5
:100F40000041633E1C000000082A3E1C1C3E2A088B
:100F500008083E3E080800000080E0600000000035
:100F60000808080808080000000060600000000091
:100F70006030180C060301003E7F71594D7F3E0022
:100F800040427F7F40400000627359496F66000015
:100F9000226349497F360000181C16537F7F50009A
:100FA000276745457D3900003C7E4B49793000007C
:100FB000030371790F070000367F49497F3600002F
:100FC000064F49693F1E00000000666600000000F1
:100FD0000080E66600000000081C36634100000047
:100FE0002424242424240000004163361C0800002B
:100FF000020351590F0600003E7F415D5D1F1E0038
:101000007C7E13137E7C0000417F7F49497F360040
:101010001C3E634141632200417F7F41633E1C00CF
:10102000417F7F495D416300417F7F491D0103008E
:101030001C3E6341517372007F7F08087F7F000070
:1010400000417F7F41000000307040417F3F010040
:10105000417F7F081C776300417F7F4140607000C3
:101060007F7F0E1C0E7F7F007F7F060C187F7F0026
:101070001C3E6341633E1C00417F7F49090F06000F
:101080001E3F21717F5E0000417F7F09197F66004E
:10109000266F4D597332000003417F7F41030000EA
:1010A0007F7F40407F7F00001F3F60603F1F000048
:1010B0007F7F3018307F7F0043673C183C674300D8
:1010C000074F78784F070000476371594D677300E9
:1010D000007F7F41410000000103060C18306000D2
:1010E0000041417F7F000000080C0603060C080049
:1010F00080808080808080800000030704000000E2
:10110000207454543C784000417F3F484878300078
:10111000387C44446C280000307848493F7F4000C8
:10112000387C54545C180000487E7F49030200005C
:1011300098BCA4A4F87C0400417F7F08047C78005C
:1011400000447D7D4000000060E08080FD7D000067
:10115000417F7F10386C440000417F7F40000000D9
:101160007C7C18381C7C78007C7C04047C78000033
:10117000387C44447C38000084FCF8A4243C1800EB
:10118000183C24A4F8FC8400447C784C041C18000F
:10119000485C54547424000000043E7F4424000042
:1011A0003C7C40403C7C40001C3C60603C1C00009F
:1011B0003C7C7038707C3C00446C3810386C4400C7
:1011C0009CBCA0A0FC7C00004C64745C4C640000DF
:1011D00008083E77414100000000007777000000DA
:1011E0004141773E080800000203010302030100A9
:1011F00070784C464C7870000E9F91B1FB4A00000D
:101200003A7A40407A7A4000387C54555D190000A3
:1012100002237555557D7B42217554547D794000DC
:10122000217555547C784000207457577C784000D5
:10123000183CA4A4E4400000023B7D55555D1B0210
:10124000397D54545D190000397D55545C180000F7
:1012500001457C7C410100000203457D7D43020085
:1012600001457D7C40000000797D1612167D7900D5
:1012700070782B2B78700000447C7C55554500001D
:10128000207454547C7C54547C7E0B097F7F49002D
:10129000327B49497B320000327A48487A3200007A
:1012A000327A4A48783000003A7B41417B7A4000EC
:1012B0003A7A4240787840009ABAA0A0FA7A0000C0
:1012C00001193C66663C19013D7D40407D3D0000B2
:1012D000183C24E7E7242400687E7F494366200009
:1012E0002B2FFCFC2F2B0000FFFF09092FF6F8A085
:1012F00040C088FE7F090302207454557D79400068
:1013000000447D7D410000003078484A7A32000078
:10131000387840427A7A40007A7A0A0A7A70000075
:101320007D7D19317D7D000000262F292F2F28007B
:1013300000262F292F26000030784D456020000020
:10134000383808080808000008080808383800007D
:101350004F6F3018CCEEBB914F6F30186C76FBF9A5
:101360000000007B7B000000081C3622081C36228F
:1013700022361C0822361C08AA005500AA00550077
:10138000AA55AA55AA55AA55DDFFAA77DDAAFF7767
:10139000000000FFFF000000101010FFFF00000021
:1013A000141414FFFF0000001010FFFF00FFFF00E7
:1013B0001010F0F010F0F000141414FCFC00000009
:1013C0001414F7F700FFFF000000FFFF00FFFF000D
:1013D0001414F4F404FCFC0014141717101F1F005D
:1013E00010101F1F101F1F001414141F1F000000D7
:1013F000101010F0F00000000000001F1F1010106F
:101400001010101F1F101010101010F0F0101010FE
:10141000000000FFFF10101010101010101010101E
:10142000101010FFFF101010000000FFFF14141424
:101430000000FFFF00FFFF1000001F1F1017171410
:101440000000FCFC04F4F4141414171710171714FC
:101450001414F4F404F4F4140000FFFF00F7F7147C
:1014600014141414141414141414F7F700F7F714C4
:10147000141414171714141410101F1F101F1F100A
:10148000141414F4F41414141010F0F010F0F010FC
:1014900000001F1F101F1F100000001F1F14141436
:1014A000000000FCFC1414140000F0F010F0F01028
:1014B0001010FFFF10FFFF10141414FFFF1414147A
:1014C0001010101F1F000000000000F0F01010109E
:1014D000FFFFFFFFFFFFFFFFF0F0F0F0F0F0F0F094
:1014E000FFFFFFFF0000000000000000FFFFFFFF04
:1014F0000F0F0F0F0F0F0F0F387C446C386C440028
:10150000FCFE2A2A3E1400007E7E0202060600002F
:10151000027E7E027E7E020063775D496363000087
:10152000387C447C3C04040080FE7E20203E1E006B
:101530000406027E7C06020099BDE7E7BD99000023
:101540001C3E6B496B3E1C004C7E7301737E4C004D
:1015500030784A4F7D390000183C243C3C243C182C
:1015600098FC643C3E273D181C3E6B494900000036
:101570007E7F01017F7E00002A2A2A2A2A2A000073
:1015800044445F5F4444000040515B4E44400000CF
:1015900040444E5B51400000000000FEFF01070682
:1015A00060E080FF7F00000008086B6B0808000007
:1015B000243612362436120000060F090F060000EA
:1015C00000000018180000000000001010000000CB
:1015D000103070C0FFFF0101001F1F011F1E00001F
:1015E00000191D171200000000003C3C3C3C0000AC
:1015F00000000000000000000000000000000000EB
:1016000000000000000000000000000000000000DA
:1016100000000000000000000000000000000000CA
:1016200000000000000000000000000000000000BA
:1016300000000000000000000000000000000000AA
:10164000000000000000000000000000000000009A
:10165000000000000000000000000000000000008A
:10166000000000000000000000000000000000007A
:10167000000000000000000000000000000000006A
:10168000000000000000000000000000000000005A
:10169000000000000000000000000000000000004A
:1016A000000000000000000000000000000000003A
:1016B000000000000000000000000000000000002A
:1016C000000000000000000000000000000000001A
:1016D000000000000000000000000000000000000A
:1016E00000000000000000000000000000000000FA
:1016F00000000000000000000000000000000000EA
:10170000183C3C1818001800363600000000000095
:1017100036367F367F3636000C3E031E301F0C00F7
:10172000006333180C6663001C361C6E3B336E007E
:101730000606030000000000180C0606060C180040
:10174000060C1818180C060000663CFF3C660000EA
:10175000000C0C3F0C0C000000000000000C0C06FC
:101760000000003F0000000000000000000C0C0022
:101770006030180C060301003E63737B6F673E0008
:101780000C0E0C0C0C0C3F001E33301C06333F00BB
:101790001E33301C30331E00383C36337F30780027
:1017A0003F031F3030331E001C06031F33331E005F
:1017B0003F3330180C0C0C001E33331E33331E0025
:1017C0001E33333E30180E00000C0C00000C0C00D1
:1017D000000C0C00000C0C06180C0603060C18007C
:1017E00000003F00003F0000060C1830180C0600F7
:1017F0001E3330180C000C003E637B7B7B031E0005
:101800000C1E33333F3333003F66663E66663F004F
:101810003C66030303663C001F36666666361F009F
:101820007F46161E16467F007F46161E16060F00C0
:101830003C66030373667C003333333F333333003A
:101840001E0C0C0C0C0C1E007830303033331E0094
:101850006766361E366667000F06060646667F0018
:1018600063777F7F6B63630063676F7B7363630082
:101870001C36636363361C003F66663E06060F0037
:101880001E3333333B1E38003F66663E36666700C4
:101890001E33070E38331E003F2D0C0C0C0C1E009F
:1018A0003333333333333F0033333333331E0C009E
:1018B0006363636B7F7763006363361C1C3663006E
:1018C0003333331E0C0C1E007F6331184C667F00CF
:1018D0001E06060606061E0003060C1830604000B1
:1018E0001E18181818181E00081C36630000000087
:1018F00000000000000000FF0C0C180000000000B9
:1019000000001E303E336E000706063E66663B0052
:1019100000001E3303331E003830303E33336E0078
:1019200000001E333F031E001C36060F06060F0084
:1019300000006E33333E301F0706366E6666670062
:101940000C000E0C0C0C1E00300030303033331EF7
:10195000070666361E3667000E0C0C0C0C0C1E00BB
:101960000000337F7F6B630000001F33333333008D
:1019700000001E3333331E0000003B66663E060F38
:1019800000006E33333E307800003B6E66060F0079
:1019900000003E031E301F00080C3E0C0C2C1800EB
:1019A0000000333333336E0000003333331E0C003A
:1019B0000000636B7F7F3600000063361C366300D7
:1019C00000003333333E301F00003F190C263F0028
:1019D000380C0C070C0C38001818180018181800D0
:1019E000070C0C380C0C07006E3B000000000000D8
:1019F0000000000000000000181A0008000000208D
:101A00001000000004010008281A0008100000203F
:101A1000F0060000200100080000000000000000A7
:081A20000000000000000000BE
:040000050800016589
:00000001FF
